:1000000000800020BD010000F1650000A96500002E
:10001000A9650000A9650000A9650000A9650000A8
:10002000A9650000A9650000A9650000F165000050
:10003000F1650000A9650000E9600000ED610000C5
:10004000F1650000F1650000F1650000F165000058
:10005000F1650000F1650000F1650000F165000048
:10006000F1650000F1650000F1650000F165000038
:10007000F1650000F1650000F1650000F165000028
:10008000F1650000F1650000F1650000F165000018
:10009000F1650000F1650000F1650000F165000008
:1000A000F1650000F1650000F1650000F1650000F8
:1000B000F1650000F1650000F1650000F1650000E8
:1000C000F1650000F1650000F1650000F1650000D8
:1000D000F1650000F1650000F1650000F1650000C8
:1000E000F1650000F1650000F1650000F1650000B8
:1000F000F16500003D6E0000F1650000D57E000056
:10010000F165000001800000F1650000F16500006C
:10011000F1650000F1650000F1650000F165000087
:10012000F1650000F1650000F1650000F165000077
:10013000F1650000F1650000F95C0000F165000068
:10014000F1650000F1650000F1650000F165000057
:10015000D9620000ED620000016300001563000039
:10016000F165000095700000F1650000F165000088
:10017000F1650000F1650000F1650000F165000027
:10018000F1650000F1650000F1650000F165000017
:10019000F1650000F1650000F1650000F165000007
:1001A000F1650000F1650000F1650000F1650000F7
:1001B000F1650000F1650000F1650000564B4CF25E
:1001C000205210B51A804DF628121A8000BF00BFC9
:1001D00006F012FA514B4FF010621A60504A9A60C2
:1001E000504ADA60504A136813F4807304D14F49BF
:1001F0000B604FF4A85313604D4B1A78110703D5C9
:100200001A7842F008021A704A4B4B492A221A7097
:100210004A4A4B4B8B4204D252F8040F43F8040B6A
:10022000F8E7484B484900228B4202D243F8042B9E
:10023000FAE74649464A002352F8230041F82300D2
:1002400001336F2BF8D1434B434A802103F8011B44
:100250009342FBD1414B3D4A1A60414B8A221A70AE
:10026000A3F5805324225A70A0221A709A7992071B
:10027000FCD59A79D406FCD43A4A937903F00C035E
:10028000082B384BF9D103221A7140225A719A79FE
:100290009006FCD5334A9179324B4906FBD5324A58
:1002A000324911600221516020221A709A7902F0BD
:1002B0000C020C2AFAD12E4B2E4A1A602E4B2F4AD2
:1002C0001A6000225A60072243F8042C2C4AC3F813
:1002D0000C2D62B606F092FB144B1B68DA0705D5AD
:1002E000284806F0C9FA284B284A1A60284B1B7880
:1002F0005B0609D5244C254B22689A4204D121483B
:1003000006F0BAFA0023236008F028FE06F07AF916
:1003100006F0A8F8FEE700BF0E200540308004403C
:10032000823F04000100002B10D0034014D0034092
:1003300002D0074000E007401096FF1F04DC0000D9
:100340002089FF1F1096FF1FBC9FFF1F0084FF1F07
:100350000000000000E400E05FE400E008ED00E0E1
:100360000050064000400640448004400000030165
:1003700004800440C010050014E000E0FF76010096
:1003800000002020F0C04A5D1CE00340A5C3945A41
:1003900000F00740FFFFFFFFFFFFFFFFFFFFFFFF32
:1003A000FFFFFFFFFFFFFFFFFFFFFFFFFFFFFFFF5D
:1003B000FFFFFFFFFFFFFFFFFFFFFFFFFFFFFFFF4D
:1003C000FFFFFFFFFFFFFFFFFFFFFFFFFFFFFFFF3D
:1003D000FFFFFFFFFFFFFFFFFFFFFFFFFFFFFFFF2D
:1003E000FFFFFFFFFFFFFFFFFFFFFFFFFFFFFFFF1D
:1003F000FFFFFFFFFFFFFFFFFFFFFFFFFFFFFFFF0D
:10040000FFFFFFFFFFFFFFFFFFFFFFFFDEF9FFFF23
:1004100010B5054C237833B9044B13B10448AFF33E
:1004200000800123237010BD1096FF1F0000000004
:1004300000DC0000084B10B51BB108490848AFF3B9
:1004400000800848036803B910BD074B002BFBD0A0
:10045000BDE81040184700BF000000001496FF1FC1
:1004600000DC00001096FF1F0000000010B50446DD
:1004700005F010FF204610BD38B5434B1B685A07E6
:1004800050D5424B04221A60414B1A6812B11A68C7
:10049000013A1A603F4B1968002970D01A68013A76
:1004A0001A603D4B1A68002A39D01A68013A1A605E
:1004B0003A4B1A682AB11A68013A1A601B68002B75
:1004C00053D0374B1A688AB11A683649013A1A6014
:1004D0000A7802F0FF0032B91A68C72A03DC324AF0
:1004E0000224146018600A78002A33D12F4B1A684E
:1004F00082B11A682E49013A1A600A7802F0FF00A8
:1005000032B91A68C72A03DC2A4A02241460186028
:100510000A78A2B91C4B1B685B0707D438BD264B71
:100520001A70C5E7254B04221A60ADE7244A136808
:10053000013B136006F0F2F9224B186038BD1A68CF
:100540001A4BB2F5E16FE5DA1A4901200022086082
:100550001A60DFE71A68124BB2F5E16FC6DA12498A
:100560000120002208601A60C0E7174C1749184A9A
:1005700018480125256003700B601370A1E7212046
:1005800006F08CF98DE700BF90F00F4088F00F4027
:10059000409BFF1F489BFF1F5C96FF1F3896FF1F65
:1005A0004497FF1F0C8AFF1F889AFF1FC49AFF1FE2
:1005B000148AFF1F8C9AFF1F4C96FF1F84F00F4078
:1005C0005C8AFF1FD49AFF1F008AFF1FB89AFF1F83
:1005D000009CFF1F549BFF1FF8B51B4D1B491C4877
:1005E0002B791C4F03700B701B4A3B681B4ED3F8D2
:1005F00054010024146004F051FF2B79337021461C
:10060000386804F051F8164A2B79164833702146A1
:100610002546144632F811301B0457BF34F8113008
:1006200040F821501BB240F821300131C829F1D1E6
:100630000D4B00221A7006F071F90C4B0C4A1B6826
:10064000C01AA2F86A00F8BD7C9AFF1F1C80004007
:100650001F800040089CFF1F106003401A8000406C
:100660000082FF1F5497FF1FA19AFF1F4897FF1F8B
:10067000789BFF1F10B5044605F0BAFC204610BD5C
:100680000B4B1B6813F0020306D00A4B1B6853B1D7
:10069000094B01221A7070470749064A0B704FF444
:1006A000FA6313607047054B1B68022BF0D070474C
:1006B00050F00F404497FF1F0C8AFF1F889AFF1FBE
:1006C0000B4B1B6813F0080306D00A4B1B6853B191
:1006D000094B01221A7070470749064A0B704FF404
:1006E000FA6313607047054B1B68022BF0D070470C
:1006F00050F00F40C49AFF1F148AFF1F8C9AFF1FEF
:10070000F8B5384C2368013323602368052B54DC8B
:10071000354B1A68344941F2A1739A424BDC0A689E
:1007200041F23E739A4247DD06F0F8F82F4B304A0B
:100730001B68304C1168304D304E84FB0327DA17AC
:10074000C2EBA712401A4FF47A7101FB123380B248
:100750001B1A84FB0324DA17C2EBA41201FB12322A
:100760002A602B68A6F86E00002B35DB244C286825
:100770000023236008F01CFA2249656808F06CFA2F
:10078000214908F069FA4FF0745108F065FA4FF00A
:100790007C5108F059F908F0AFFB0D230128ACBFDC
:1007A0002818681C20612360E368502223F080032E
:1007B000E360E260F8BDF8BDF8BD144D144E2B683F
:1007C000336006F0ABF828602A683168064B521A8D
:1007D00000211A6021609CE72B6803F57A732B6077
:1007E000C4E700BFC09AFF1F449BFF1FAC9AFF1FC6
:1007F000D49AFF1FD34D6210589BFF1F789BFF1F99
:1008000000800340BD378635001B374CA49AFF1F7C
:10081000A89AFF1FF8B5134B1B6813F0080304D107
:10082000114A002111601846F8BD0F4E0546481EBA
:100830000C4608F0BDF9316808F00EFA0746284664
:1008400008F0B6F90146384608F0FEF8054620469D
:1008500008F0AEF90146284608F0B2FA306008F018
:100860004BFBF8BDD0F00F40909AFF1F38B50546FE
:1008700005F0B6FD0446681C05F0B2FD04EB00204F
:1008800038BD00BF10B53221002005F0C3FD0021A6
:10089000012005F0BFFD5121022005F0BBFD4621DE
:1008A000032005F0B7FD2F21042005F0B3FD012141
:1008B000052005F0AFFD0121062005F0ABFD00216C
:1008C000072005F0A7FDC021082005F0A3FD0021A9
:1008D000092005F09FFD0621102005F09BFD002159
:1008E000112005F097FD0021122005F093FD002155
:1008F000132005F08FFD1021142005F08BFD002141
:10090000152005F087FD3221162005F083FD00211A
:10091000172005F07FFD2021182005F07BFD002128
:10092000192005F077FD3221202005F073FD00210C
:10093000212005F06FFD1421222005F06BFD002120
:10094000232005F067FD5021242005F063FD0021E0
:10095000252005F05FFD0121262005F05BFD00212B
:10096000272005F057FD0021282005F053FD002128
:10097000292005F04FFDFA21302005F04BFD002124
:10098000312005F047FD0621322005F043FD00210E
:10099000332005F03FFD0021342005F03BFD002110
:1009A000352005F037FD0021362005F033FD00210C
:1009B000372005F02FFD0C4B1C683820E1B205F004
:1009C00029FDC4F30721392005F024FD074B1C68DD
:1009D0004020E1B205F01EFDC4F307214120BDE82F
:1009E000104005F017BD00BF5496FF1F989AFF1FD7
:1009F00008B50121062005F00DFD0021072005F0B6
:100A000009FDC021082005F005FD0021092005F0A1
:100A100001FD0621102005F0FDFC0021112005F04C
:100A2000F9FC0021122005F0F5FC0021132005F04F
:100A3000F1FC1021142005F0EDFC0021152005F03B
:100A4000E9FC3221162005F0E5FC0021172005F015
:100A5000E1FC2021182005F0DDFC0021192005F023
:100A6000D9FC3221202005F0D5FC0021212005F001
:100A7000D1FC1421222005F0CDFC0021232005F01B
:100A8000C9FC5021242005F0C5FC0021252005F0DB
:100A9000C1FC0121262005F0BDFC0021272005F026
:100AA000B9FC0021282005F0B5FC0021292005F023
:100AB000B1FC0621322005F0ADFC0021332005F009
:100AC000A9FC0021342005F0A5FC0021352005F00B
:100AD000A1FC0021362005F09DFC00213720BDE857
:100AE000084005F097BC00BF08B5244B1B68012BDC
:100AF0002CD0022B1ED063B1214B1B68214A224906
:100B00001B0282FB0302DB43DB0FC3EB62130B60B0
:100B100008BD142005F0C8FE002823D01B4A1C4B3A
:100B200012681C491A60164B09681B4A196001219A
:100B30001160E2E7194A164B126819491A60104B06
:100B40000968154A196004211160D6E70F4A104B55
:100B5000126810491A600A4B09680F4A196003218C
:100B60001160CAE70D4A0A4B12680D491A60044B1E
:100B70000968094A196002211160BEE76496FF1FE7
:100B8000408AFF1F1F85EB51648AFF1F688AFF1F81
:100B90002C8AFF1F608AFF1F6896FF1F6C8AFF1F49
:100BA000108AFF1F08B50620FFF760FE344B18605F
:100BB0000820FFF75BFE334A642303FB00F3102099
:100BC0001360FFF753FE304B18601220FFF74EFE04
:100BD0002E4B18601420FFF749FE2D4B02461620BD
:100BE0001A60FFF743FE2B4B024618201A60FFF7EE
:100BF0003DFE294B024620201A60FFF737FE274BA7
:100C0000024622201A60FFF731FE254B02462420BF
:100C10001A60FFF72BFE234B024626201A60FFF7CF
:100C200025FE214B024628201A60FFF71FFE1F4BAE
:100C3000024630201A60FFF719FE1D4B0246322093
:100C40001A60FFF713FE1B4B024634201A60FFF7B1
:100C50000DFE194B024636201A60FFF707FE174BB0
:100C6000024638201A60FFF701FE154B186040203D
:100C7000FFF7FCFD134B1860BDE80840FFF734BFD9
:100C8000848AFF1FBC9AFF1F9C9AFF1F6496FF1F58
:100C9000688AFF1F608AFF1F6C8AFF1F108AFF1F70
:100CA0003496FF1F5896FF1F4C9BFF1F509BFF1F42
:100CB000AC9AFF1FCC9AFF1F0C9CFF1F609BFF1F6D
:100CC0005496FF1F989AFF1F08B50020FFF7CEFD2E
:100CD000322805D0FFF7D6FDBDE80840FFF762BF18
:100CE0000220FFF7C3FD44F251639842F2D1042081
:100CF000FFF7BCFD40F22F139842EBD1ECE700BFA9
:100D000008B5132005F0D0FD104BC0B901221A70B0
:100D10001B7823B90E4B1B7803F0FF0153B101215F
:100D2000202005F0BBFD0B4B1B785BB10A4B022268
:100D30001A6008BD2020BDE8084005F0AFBD0022C4
:100D40001A70E5E7054B02221A6008BD5097FF1F95
:100D50004C96FF1F5C9BFF1FC4F00F40C8F00F4074
:100D6000F8B55B4B5B4A1B685B4DD3F858311B6C85
:100D70001B681BB21360184607F01AFF014657485C
:100D800007F060FE564907F067FF564907F05CFE22
:100D900008F0B2F8544B28601A6890425DDC534B5F
:100DA0001A684AB9524A534914681960013404F068
:100DB0000303012B14606AD04F4B196841F2A272F1
:100DC000914204DC1A6841F23D739A4210DC4B4AAE
:100DD0004B484C4B02240821046011601B7803F03F
:100DE000FF0223BB4849494B0B2008601A60F8BD3D
:100DF0002B68372B20DC322B03DD434B1B680B2B7E
:100E000016D0434B1B78002B33D1424B1B78002B61
:100E100047D13D4B404D41483A493B4F02260824BB
:100E200000222E6004600A701B680B2B4AD0F8BDAC
:100E3000364B1B68012BE4D13148304A314B022438
:100E40000821046011601B78002BF0D12E492F4B34
:100E50000B20012208601A60F8BD0446C1B2382098
:100E60001C6005F0D7FAC4F30721392005F0D2FA47
:100E700095E72A4A234B082111601B78002BD6D115
:100E80002149224B0B20022208601A60F8BDE1B212
:100E9000402005F0BFFAC4F30721412005F0BAFA5B
:100EA0008AE7194B1A68022AB4D01C49154A08204F
:100EB00008601278002ABAD1144A0B200321186066
:100EC0001160F8BD114B012139601A60F8BD00BFF7
:100ED000089CFF1F4896FF1F4C97FF1F851B5F4410
:100EE000B285F03E0000C8415496FF1F5C8AFF1F88
:100EF000989AFF1F80EE3600449BFF1F88F00F403A
:100F0000C4F00F40009CFF1F008AFF1FB89AFF1F0C
:100F10005097FF1F4C96FF1FC8F00F4084F00F4002
:100F2000F8B5324CE37A05460E46EBB172B6E37A79
:100F3000D9071A4606D52E49E26808680240A26120
:100F40000A601A469B0706D52A4923690868E27A8F
:100F50000340E3610B60570705D5274A63691168B1
:100F60000B402362136062B62368244AD968914219
:100F700006D0234F234824491F60DA6018611960A6
:100F800000210A2005F08AFCB6B2236846F080569C
:100F90004FF00042DA625E63DA6A002AFCDAADB230
:100FA00045F080554FF00042996BDA625D63DA6A72
:100FB000002AFCDA01210A209B6B05F06FFCE37A22
:100FC0000A491A4683B1D80703D5104A89691160C6
:100FD0001A46990703D50E4BE169E27A1960530767
:100FE00002D50C4B226A1A60F8BD00BF8C8AFF1F25
:100FF00080E100E084E100E088E100E003200138C6
:1010000001403F000320017800003F8000E100E044
:1010100004E100E008E100E02DE9F04FADF54B7D83
:1010200000244FF44872002102A808F0F9FADFF812
:10103000C092DFF8FCE2AB4DAB4FDFF8F8C2019491
:10104000224626460094A04601A839E0A74BDEF8C8
:1010500000B029681B68D7F800A05B00053B4FEA89
:101060004A0A9342C1EB0B010AF1050A39D020DA92
:1010700092451EDD59F822309845BCBF9C4B53F871
:101080002280C0F80480414513DA9A4B1B6823B9CB
:101090001EB9994B20261E602646964B1B68012BD5
:1010A00075D0944B1B68022B5FD0924B1B68032BAF
:1010B00052D00132C82A04F1050400F104001AD00C
:1010C000DCF800309B06C1D4884BDEF800B02968FC
:1010D0001B68D7F800A05B00934259444FEA4A0AC4
:1010E000C5D159F8223043600132C82A04F1050401
:1010F00000F10400E4D1DEF800302A689B1A98451C
:10110000C0F2E080002E00F0D5807C4C2378002BCC
:1011100048D17B4B1B78002B44D17A4804F0F6F978
:10112000784804F02BFA002840F02581754804F037
:101130002FFA002840F01281734B1B6813F0010353
:1011400034D06C4B714D1B68032B31D8DFE813F0A2
:101150002301250120012301036805339845A8DDFB
:10116000654B202119602646A3E759F82210DEF8C6
:101170000030D5F800A0CAEB0303994295DA019B31
:10118000002B92D15C4B2021196001948DE7009BCC
:10119000002B86D10368994283DB574B20211960CD
:1011A00000947EE7544B20221A60B6E7574D2B601F
:1011B000DFF884912868D9F80010D9F80030002BA6
:1011C00040F0C980494B1B683A6803EB83035B001E
:1011D000834205DC02EB82035B008342A8BF034627
:1011E000424A4B4E1268396802EB8202520001EB10
:1011F0008101C2EB4101B1F57A7FCCBF40F2E93009
:101200004FF47A70A3EB0202C8BF013100FB02F277
:1012100092FBF1F23F490A60344A1268386802EBE7
:101220008202520000EB8000C2EB40009B1A652254
:10123000B0F5803F02FB08F2A6BF1B040130C3EBF0
:101240000343002AB8BFFF3212123260227893FBA8
:10125000F0F31AB92A4A1278002A37D04FF4FA72FA
:101260004B242A6047F6FF730A604BF6FF70346028
:10127000294A1268032A07D8DFE802F0696460028D
:1012800019461846FFF74CFE244E337873B1D9F84F
:101290000020234B234983FB0203A3EBE27303EB00
:1012A00043030968A2EB43038B4279D00DF54B7DD4
:1012B000BDE8F08F009B002B7FF427AF019B002B34
:1012C0007FF423AF184B20221A601EE71748C8EBA3
:1012D000084880FB082040444FEAE878C8EBE0105B
:1012E000C6E700BF708AFF1F5896FF1F3496FF1F86
:1012F0005497FF1F4C9BFF1F04F00F405097FF1F98
:101300004C96FF1F689BFF1F90F00F40649BFF1FD0
:101310002C96FF1FFC9BFF1F509BFF1FA09AFF1FD7
:10132000ABAAAA2AC09AFF1F08F00F4081808080D4
:10133000648AFF1F10F00F40CC9AFF1F0146FFF791
:10134000EFFDA1E701461846FFF7EAFD9CE71946C5
:10135000FFF7E6FD98E7FFF75DFA33E71C4B1D4802
:10136000196889B204F0D0F81B4A1C4B01211160A6
:1013700008221A60E0E61A4B1648196889B204F090
:10138000C3F8184A184B0121116008221A60CDE6F3
:10139000019B2B600CE72E600AE7009B2B6007E7A0
:1013A000124C134D04200021CB0054F8202054F897
:1013B000233043EA022345F821300131192900F195
:1013C0000800F1D1002333700DF54B7DBDE8F08F9F
:1013D0000C9CFF1F689BFF1F88F00F40C8F00F4058
:1013E000609BFF1F84F00F40C4F00F405497FF1F15
:1013F000DC9AFF1FF8B5224C23783BB1214A224BDF
:101400001268A3F86C2001232370F8BD03F0FF05D8
:1014100005F084FA1D4F1E4E38604FF4C8722946FD
:101420001C4808F0FDF81C4B306819682A46C9B200
:1014300003F044F92B4623222221306803F09CF963
:101440002946306803F026F91449154A0979154BE5
:1014500011704FF480721A603268134BD2F8540145
:10146000196803F02FFFFFF7D7FD05F057FA3B6827
:10147000054AC01A01232370A2F86C00F8BD00BF12
:10148000A19AFF1FC09AFF1F789BFF1F4897FF1F5D
:10149000089CFF1F0082FF1F2C8AFF1F7C9AFF1FE2
:1014A0001B80004088E100E0588AFF1F10B5212012
:1014B00005F0FAF95F4C238800285DD043F0010362
:1014C0002020238005F0F0F9238800285DD043F028
:1014D00002031320238005F0E7F9238800285DD15B
:1014E00043F004031420238005F0DEF9238800284C
:1014F0005DD143F008030920238005F0D5F9238846
:1015000000285DD143F010030820238005F0CCF9BA
:10151000238800285DD043F020031120238005F0AC
:10152000C3F9238800285DD143F0400312202380B3
:1015300005F0BAF9238800285DD143F080030E201E
:10154000238005F0B1F9238800285DD043F480732F
:101550000F20238005F0A8F9238800285DD043F4EC
:1015600000731020238005F09FF9238800285DD1A7
:1015700023F48063238010BD23F001032020238007
:1015800005F092F923880028A1D123F0020313204B
:10159000238005F089F923880028A1D023F00403D3
:1015A0001420238005F080F923880028A1D023F09F
:1015B00008030920238005F077F923880028A1D0AB
:1015C00023F010030820238005F06EF923880028FB
:1015D000A1D123F020031120238005F065F9238891
:1015E0000028A1D023F040031220238005F05CF9ED
:1015F00023880028A1D023F080030E20238005F04B
:1016000053F923880028A1D123F480730F2023806D
:1016100005F04AF923880028A1D123F40073102093
:10162000238005F041F923880028A1D043F480638A
:10163000238010BDD89AFF1F2DE9F04F9B4D9C4A87
:101640002B689C4F9C4C9D4EDFF8B0A2DFF8B08217
:10165000DFF8B0B2D8F80010DFF8ACC22182A2FBEC
:1016600003393B6823813388A381BAF80030E381D2
:10167000934BDFF898E293489349944A4FEA5919FB
:10168000A4F80A90D3F80090914BA4F81290DBF8DC
:101690000090A4F81490D3F800908E4BA4F8169004
:1016A000D3F800908C4BA4F81890D3F800908B4B93
:1016B000A4F81A90D3F80090894BA4F81C90D3F8A2
:1016C0000090884BA4F81E90D3F80090864BA4F8A5
:1016D0002090D3F80090854BA4F82290D3F8009086
:1016E000834BA4F82490D3F80090A4F82690DFF858
:1016F0002092DCF800C0D9F80090A4F828C0DFF8E8
:1017000014C2A4F82A90DFF81092DCF800C0A4F804
:101710002CC0B9F800C0774BA4F82EC0DFF8FCC18C
:10172000DEF800E000680968218612681B689CF8F2
:101730000010A4F868E085B0A4F870006286A38663
:1017400071B96D4801F0FF0304F1340250F8231021
:1017500022F8021F0133192BF8D101238CF8003035
:10176000554A0392104604F0CFF8B4F808E03B68FD
:10177000A4F872009E454F48039A3DD00EF1FF3306
:10178000F62B40F2388263892A684B49642000FBBB
:1017900003F393423CD0B3F5165F0ED020DDB3F5D2
:1017A000E14F0AD040F33C82B3F5614F05D0B3F569
:1017B000E13F02D0B3F5164F0FD13D4A2B60A2FB9B
:1017C0000323C3F347110820039304F023FE039B74
:1017D0000920C3F3473104F01DFEA389326819E0E4
:1017E000B3F5966FE9D040F31282B3F5166FE4D0EB
:1017F000B3F5965FF1D1E0E753892968642000FBD7
:1018000003F38B42C7D193893268934204D119E024
:101810008B893268934207D0072B05D801229A4062
:1018200012F0D10F40F0058205F0B8FA05F04AFA3F
:1018300028683A7831883A2300258DE82800022369
:1018400003F094FFDAF80020E3892C48934202D099
:10185000022B40F2C681238AD8F8002093426CD034
:101860005A1E3F2A69D8DFE802F05B5B685B686854
:10187000685B686868686868685B68686868686802
:101880006868686868686868685B686868686868E5
:1018900068686868686868686868686868686868C8
:1018A0006868686868686868685B00BFBC9AFF1F02
:1018B0001F85EB51848AFF1F789BFF1F9C9AFF1F97
:1018C000608AFF1F589BFF1F2C96FF1F649BFF1F02
:1018D000108AFF1F3496FF1F5896FF1F4C9BFF1F57
:1018E000509BFF1FAC9AFF1FCC9AFF1F0C9CFF1F41
:1018F000609BFF1FFC9BFF1FDC9AFF1F6496FF1F6E
:10190000688AFF1F6C8AFF1F4C97FF1F449BFF1FB5
:101910005496FF1F989AFF1FD89AFF1FA09AFF1F87
:10192000C8F80030D8F800501420E9B204F072FD75
:10193000C5F30721152004F06DFD904B8F491A68FF
:10194000638A93420ED0A3F114023C2A0AD80B609A
:101950000D681620E9B204F05DFDC5F307211720DC
:1019600004F058FDA38ADBF80020934231D05A1EC0
:101970003F2A2ED8DFE802F020202D202D2D2D200B
:101980002D2D2D2D2D2D2D202D2D2D2D2D2D2D2D94
:101990002D2D2D2D2D2D2D202D2D2D2D2D2D2D2D84
:1019A0002D2D2D2D2D2D2D2D2D2D2D2D2D2D2D2D67
:1019B0002D2D2D2D2D2D2D20CBF80030DBF80050B6
:1019C0001820E9B204F026FDC5F30721192004F020
:1019D00021FD6B4B6A491A68E38A93420ED0A3F14A
:1019E00014023C2A0AD80B600D682020E9B204F0EA
:1019F00011FDC5F30721212004F00CFD614B614965
:101A00001A68238B93420DD05A1F282A0AD80B60DC
:101A10000D682220E9B204F0FDFCC5F30721232064
:101A200004F0F8FC584B58491A68638B93420ED067
:101A3000A3F13702282A0AD80B600D682420E9B2E6
:101A400004F0E8FCC5F30721252004F0E3FC4F4B2C
:101A50004E491A68A38B93420CD0032B0AD80B6013
:101A60000D682620E9B204F0D5FCC5F30721272034
:101A700004F0D0FC464B46491A68E38B93420CD0E5
:101A8000032B0AD80B600D682820E9B204F0C2FCD1
:101A9000C5F30721292004F0BDFC3E4B3D491A68DF
:101AA000238C93420DD0B3F5FA6F0AD80B600D6802
:101AB0003020E9B204F0AEFCC5F30721312004F078
:101AC000A9FC354B34491A68638C93420ED042F21C
:101AD0000F7293420AD80B600D683220E9B204F00D
:101AE00099FCC5F30721332004F094FC2B4B2B49C0
:101AF0001A68A38C93420ED042F20F7293420AD816
:101B00000B600D683420E9B204F084FCC5F30721B2
:101B1000352004F07FFC224B21491A68E38C934264
:101B20000ED042F20F7293420AD80B600D68362035
:101B3000E9B204F06FFCC5F30721372004F06AFC1A
:101B4000B9F80020E38D9A4214D013F001052FD08C
:101B5000144B154A1A600121212004F09FFEE48DE8
:101B600004F00204A4B27CBB2146202004F096FEBF
:101B70000E4B1C7005B0BDE8F08F00BF608AFF1FE0
:101B8000108AFF1F3496FF1F5896FF1F4C9BFF1FA4
:101B9000509BFF1FAC9AFF1FCC9AFF1F0C9CFF1F8E
:101BA000609BFF1F489BFF1F804F12004C96FF1F3A
:101BB0002946212004F072FEE48D244B04F0020437
:101BC000A4B21D60002CCFD00121202004F066FEBD
:101BD0001F4A204B2049116001221A7005B0BDE850
:101BE000F08FD9B20360122004F014FC00211320FE
:101BF00004F010FC2FE65FFA8EF1C0F800E006203A
:101C000004F008FC0021072004F004FCBBE5B3F558
:101C1000967F3FF4D2ADB3F5167F7FF4DEADCCE511
:101C2000B3F5615F3FF4C9ADB3F5964F7FF4D5AD21
:101C3000C3E5D9B210203360039304F0EBFB039BA0
:101C40001120190A04F0E6FBEEE500BF489BFF1FD8
:101C50005C96FF1F4C96FF1FC0270900F0B585B0AA
:101C600004F076FB2248234C234E03F02FFC042182
:101C7000032208238DE80E002048062205230721B1
:101C800004F05CF84FF4B27004F0F2FC054602F088
:101C9000A7FC1B4B204600211D6004F045F932468D
:101CA00020461849184C06F05BFA184B184A196878
:101CB000184B32F811701A68174B184953F8225014
:101CC000174B18481D60642303FB07F3DFF85CE043
:101CD0000B60154903603246002780262046CEF867
:101CE00000502760267105B0BDE8F04006F038BA14
:101CF000689BFF1F7C9AFF1FFC89FF1F6C96FF1FCC
:101D0000089CFF1F75060000EC9BFF1F888AFF1FC1
:101D1000B8D10000088AFF1F00D50000049CFF1FF7
:101D20009C9AFF1FBC9AFF1F6D040000F49BFF1FCD
:101D30000FB410B584B006AB0B4C53F8042B0093D2
:101D40000A2101A807F084FF204604F021F801A829
:101D500007F0D6FE01A90246204604F0E5FA04B0D9
:101D6000BDE8104004B070476C96FF1F38B52A4C90
:101D700023682BB9294B1B780BB32948FFF7D8FFF1
:101D80002368012B21D02368022B27D02368032B43
:101D90002DD0244B1A78012A03D01B78022B00D0B7
:101DA00038BD214D2149224A012300202B602060AB
:101DB0000B701368002BF3D11E4B136038BD1E4807
:101DC000FFF7B6FF2368012BDDD1144B1B78ABB1B5
:101DD0001348FFF7ADFF2368022BD7D10F4B1B78B9
:101DE00093B11648FFF7A4FF2368032BD1D10B4B07
:101DF0001B786BB11148FFF79BFFCAE7104B1148E6
:101E00001968FFF795FFBEE70F48FFF791FFBDE7A1
:101E10000E48FFF78DFFBCE7B89AFF1F5C9BFF1FC2
:101E2000C8D10000C89AFF1F008AFF1F009CFF1F37
:101E30003896FF1F804F1200D4D10000ECD1000073
:101E40004C97FF1FE0D10000F8D1000004D2000041
:101E500038B5464C2368002B79D0454B1A68CAB177
:101E60002368012B1BD02368022B26D02368032B69
:101E70002BD02368042B30D03E4D2B78012B37D04C
:101E80002B78022B3FD02B78042B48D02B78052BB6
:101E900055D038BD384A1A602368012BE3D1374B3F
:101EA00037491B68374881FB0321DB17C3EBA101CE
:101EB000FFF73EFF2368022BD8D1334B3348196814
:101EC000FFF736FF2368032BD3D1314B3148196814
:101ED000FFF72EFF2368042BCED12F4B1B68DB06A8
:101EE0003BD5244D2D48FFF723FF2B78012BC7D17D
:101EF00022681E4B032AD6BF1A68002201321A60DC
:101F00002B78022BBFD12368184A002BCABF136855
:101F1000042303F1FF3313602B78042BB6D123681D
:101F2000042BB3D11E4B144A1A60212004F0BCFCD0
:101F3000B0FA80F14909212004F0B0FCA6E7194B62
:101F4000194A1B786BB90C211160236038BD174BFF
:101F500017481968FFF7ECFE82E71648FFF7E8FE1E
:101F60008AE7022100231160236038BDB89AFF1F61
:101F70003896FF1FC89AFF1F804F1200FC9BFF1F5F
:101F8000676666661CD200002C8AFF1F28D20000FC
:101F9000408AFF1F34D2000010F00F4040D20000F2
:101FA000489BFF1F549BFF1F008AFF1F2C96FF1F9B
:101FB00010D200004CD200003D4B1A6870B50AB92F
:101FC0003C4A1A603C4C3D4D2378012B11D02378BC
:101FD000022B0ED02B68042B0AD8DFE803F0313631
:101FE00003420E003648FFF7A3FE2378022B43D0AE
:101FF00070BD2B6801332B60EDE73248FFF798FE88
:102000002378314C012B3CD04FF4FA7004F0A8FC3B
:1020100022682D4C40F262439A4236D02B48FFF79B
:1020200087FE4FF4FA7004F09BFC294829492A4A9C
:102030000023012606600B702B602360136070BDC7
:102040002648BDE87040FFF773BE2548FFF770FED5
:102050002378022BCCD11C4A136803F57A731360E2
:1020600070BD2048FFF764FE2378012BC0D1164ACB
:1020700013681433136070BD134A1368643313601C
:1020800070BD236802332360BEE7114A124B164825
:102090000221002611601E60FFF74AFE4FF4FA701D
:1020A00004F05EFC0B4B2E60012226601A7070BD9E
:1020B0003896FF1F804F1200C89AFF1FF89BFF1F22
:1020C00070D2000088D200005096FF1FA0D20000FE
:1020D000008AFF1F549BFF1FB89AFF1F58D20000B1
:1020E00064D200007CD2000094D2000038B5614B6D
:1020F0001A680AB9604A1A60604C2368FBB1236809
:10210000012B22D02368022B25D02368032B28D053
:102110002368042B2BD02368052B2ED0584B1A781C
:10212000012A35D01A78022A3DD01A78032A46D0DF
:102130001A78042A4BD01B78052B70D038BD514833
:10214000FFF7F6FD2368012BDCD14F48FFF7F0FDC8
:102150002368022BD9D14D48FFF7EAFD2368032BF2
:10216000D6D14B48FFF7E4FD2368042BD3D149486F
:10217000FFF7DEFD2368052BD0D1474B1B685B03BF
:1021800044D54648FFF7D4FD3D4B1A78012AC9D102
:1021900021683A4A0429D6BF116800210131116033
:1021A0001A78022AC1D122683449002ACABF0A68B3
:1021B000052202F1FF320A601A78032AB8D13849A1
:1021C00000220120086022601A78042AB3D1226814
:1021D0002A49FAB122682949012A45D022682749AB
:1021E000022A3BD022682549032A31D0226823499C
:1021F000042A27D02268052A9DD12A4A2A492B4839
:1022000010600A7882F001020A7094E72848FFF70C
:102210008FFD83E72248152505600A60DAE7254827
:10222000FFF786FD244A254B254900254FF4FA7017
:1022300015601D700D6004F093FB194B01221A60AC
:10224000256038BD16481925002205600A60D1E7CF
:1022500013481825002205600A60C7E710481725B3
:10226000002205600A60BDE70D48162500220560C2
:102270000A60B3E73896FF1F804F1200B89AFF1F1D
:10228000C89AFF1FACD20000B8D20000C4D2000030
:10229000D0D20000DCD2000050F00F40F4D2000099
:1022A000008AFF1F5C96FF1F4C96FF1FC027090086
:1022B00000D30000E8D20000F89BFF1F549BFF1FD3
:1022C0005096FF1F5D4B1A6870B50AB95C4A1A60D8
:1022D0005C4C2368002B37D02368012B3CD023684B
:1022E000022B41D02368032B46D02368042B4BD00C
:1022F000554B1A78012A53D01A78022A5BD01A78E3
:10230000032A64D01B78042B00D070BD23684D4A8B
:10231000002B62D023684B4A012B6AD02368494ABC
:10232000022B73D02368474A032B7CD02368454A8D
:10233000042BEAD14548464B006846491860D7202F
:1023400000230860136070BD434B44481968FFF7D1
:10235000EFFC2368012BC2D1414B42481968FFF7BB
:10236000E7FC2368022BBDD13F4B40481968FFF7BB
:10237000DFFC2368032BB8D13D4B3E481968FFF7BB
:10238000D7FC2368042BB3D13B4A3C4B12683C4832
:1023900053F82210FFF7CCFC2B4B1A78012AABD153
:1023A0002168284A0329D6BF116800210131116034
:1023B0001A78022AA3D122682249002ACABF0A68D1
:1023C000042202F1FF320A601A78032A9AD12149C5
:1023D000022000220860226094E71E4D1E48294911
:1023E000D3262E60136003680B602368154A012B07
:1023F00094D1184D1A49244BD42600202E60106029
:102400000A681A6023680F4A022B8BD1114D1649B6
:102410001C4BD52600202E6010600A681A602368C5
:10242000084A032B82D10B4D1149174BD6260020A9
:102430002E6010600A681A6078E700BF3896FF1FA8
:10244000804F1200B89AFF1FC89AFF1F6496FF1FA3
:10245000749AFF1F008AFF1F688AFF1F0CD30000B9
:10246000608AFF1F18D300006C8AFF1F24D300006E
:10247000108AFF1F30D300006896FF1F448AFF1F99
:102480003CD300004496FF1F3096FF1FF8B5524B17
:102490001A680AB9514A1A60514C23682BB3236851
:1024A000012B2AD02368022B2FD04E4B1A78012AF9
:1024B00040D01A78D2B2022A48D01A78032A50D0D3
:1024C0001B78042B00D0F8BD2368002B4FD0236865
:1024D000012B56D02368022BF5D14349434A444B84
:1024E00009681160DF221A60F8BD424B4248196842
:1024F000FFF71EFC2368012BD4D1404B40481968DC
:10250000FFF716FC2368022BCFD1374A3D491268EA
:10251000002A5BD0062A57D0072A59D10B600A68D7
:10252000394B3A4853F82210FFF702FC2D4B1A782A
:10253000012ABED121682A4A0129D6BF116800218B
:10254000013111601A78D2B2022AB6D1206824492A
:102550000028C4BF0A6802F1FF320A601A78032A11
:10256000AED123490220012208602260A8E7214958
:10257000274A1F4B09681160DD221A602368012B6E
:10258000A8D11E49234A1A4B0E68DFF890E0166066
:102590000021DE221A60DEF800001F4D0B460C22DF
:1025A000642701E035F8022F07FB02F2964208BFCC
:1025B000184603F1010308BF0121062BF2D10029BF
:1025C00088D0CEF8000085E70123A7E71346A5E7EA
:1025D000042AA4D10323A1E73896FF1F804F1200DD
:1025E000B89AFF1FC89AFF1F9C9AFF1FF49BFF1FFA
:1025F000008AFF1F848AFF1F44D30000BC9AFF1F7C
:1026000050D30000088AFF1F308AFF1F58D30000F4
:10261000048AFF1F049CFF1FB8D10000888AFF1F97
:102620003F4B1A6870B50AB93E4A1A603E4C23689F
:10263000002B2AD02368012B2FD02368022B34D003
:102640003A4B1A78012A39D01A78D2B2022A41D0EC
:102650001A78032A49D01B78042B00D070BD236858
:10266000314A002B46D023682F4A012B4ED02368D5
:102670002D4A022BF2D12E4C2E492F4BE92500205A
:10268000256010600A681A6070BD2C4B2C481968D0
:10269000FFF74EFB2368012BCFD12A4B2A4819683C
:1026A000FFF746FB2368022BCAD1224B2748196843
:1026B000FFF73EFB1D4B1A78012AC5D121681A4A43
:1026C0000129D6BF11680021013111601A78D2B2F8
:1026D000022ABDD1206814490028C4BF0A6802F14B
:1026E000FF320A601A78032AB5D1114902220A6022
:1026F0002260B0E70E4D11481549E7262E601360A1
:1027000003680B602368084A012BB0D1084D0D49BE
:10271000104BE82600202E6010600A681A60A6E7B9
:102720003896FF1F804F1200B89AFF1FC89AFF1FEC
:10273000008AFF1F609BFF1F789AFF1FCC9AFF1F24
:1027400060D300000C9CFF1F68D3000070D3000012
:10275000949AFF1F4096FF1F604B1A6870B50AB924
:102760005F4A1A605F4C2368002B39D02368012B25
:102770003ED02368022B43D02368032B4BD0236821
:10278000042B53D0584B1A78012A58D01A78022AB1
:1027900060D01A78D2B2032A69D01B78042B00D0FB
:1027A00070BD23684F4A002B66D023684D4A012B29
:1027B0006ED023684B4A022B77D02368494A032BFB
:1027C00000F081802368474A042BE9D1474C4849EF
:1027D000484BF5250020256010600A681A6070BD1E
:1027E000454B46481968FFF7A3FA2368012BC0D16F
:1027F000434B44481968FFF79BFA2368022BBBD16F
:10280000414A424B1268424853F82210FFF790FAAF
:102810002368032BB3D13F4A3F4B12683F4853F81C
:102820002210FFF785FA2368042BABD1304B3C48CC
:102830001968FFF77DFA2C4B1A78012AA6D1216876
:10284000284A0329D6BF11680021013111601A7886
:10285000022A9ED122682349002ACABF0A6804229C
:1028600002F1FF320A601A78D2B2032A95D11F49C9
:1028700002200860226090E71C4D1F482949F1267C
:102880002E60136003680B602368164A012B90D1F9
:10289000164D1B49244BF22600202E6010600A685A
:1028A0001A6023680F4A022B87D1104D16491F4B1F
:1028B000F32600202E6010600A681A602368094A17
:1028C000032B7FF47FAF094D1249194BF4260020EA
:1028D0002E6010600A681A6074E700BF3896FF1F08
:1028E000804F1200B89AFF1FC89AFF1F008AFF1F6F
:1028F000AC9AFF1F749BFF1F3496FF1F78D3000014
:102900005896FF1F84D300004C9BFF1F188AFF1F9F
:1029100090D30000509BFF1F748AFF1F98D30000C4
:10292000A0D300003C96FF1FD09AFF1F849AFF1F80
:102930006096FF1F424B1A6810B50AB9414A1A60E7
:10294000414C23684BB32368012B2DD02368022B05
:1029500032D02368032B37D02368042B3CD0236864
:10296000052B41D02368062B46D0384B1A78012A14
:1029700049D01A78022A51D01A78032A5AD01B78E3
:10298000042B00D010BD23682F4A062BFAD1304902
:10299000FB2000230860136010BD32212D48FFF793
:1029A000C7F92368012BD1D144F251612A48FFF7BE
:1029B000BFF92368022BCCD140F22F112748FFF733
:1029C000B7F92368032BC7D1254B26481968FFF7B1
:1029D000AFF92368042BC2D1234B24481968FFF7B1
:1029E000A7F92368052BBDD1214B22481968FFF7B1
:1029F0009FF92368062BB8D11F48FFF799F9134BAD
:102A00001A78012AB5D121680F4A0529D6BF116865
:102A10000021013111601A78022AADD122680A49D9
:102A2000002ACABF0A68062202F1FF320A601A7839
:102A3000032AA4D1064902200422086022609EE7EE
:102A40003896FF1F804F1200B89AFF1FC89AFF1FC9
:102A5000008AFF1FA8D30000B4D30000BCD300003D
:102A60004C97FF1FE0D100005496FF1FC4D3000015
:102A7000989AFF1FD0D30000D8D30000364B1A68B5
:102A800070B50AB9354A1A60354B364C1B78002BA5
:102A90003AD035482168FFF74BF9344B1A78012AB0
:102AA0003AD01A78022A40D01A7802F0FF0052B9C0
:102AB0002F4A11680131116011683C293CDC1B78F8
:102AC000052B06D070BD2A4A002111601B78052B0A
:102AD000F8D1284B22681A601C681420E1B203F078
:102AE00099FCC4F30721152003F094FC2248FFF75A
:102AF0001FF94FF4FA7003F033FF2049204B1520E3
:102B0000002208601A6070BD1E482168FFF710F9A6
:102B1000164B1A78012AC4D122681249012A12DD03
:102B200052100A601A78022ABED122680D493F2A43
:102B30000EDC52000A60B7E7104D114915262E60D1
:102B400008601060BBE71A784020022A0860ABD109
:102B500001222260A8E700BF3896FF1F804F1200B5
:102B60005C9BFF1F4496FF1F0CD30000C89AFF1FF9
:102B7000709BFF1F688AFF1FF0D30000008AFF1FB1
:102B8000B89AFF1FE4D30000F8B5364B1A680AB9AB
:102B9000354A1A60354B364C1B78002B3AD03548F5
:102BA0002168FFF7C5F8344B1A78012A3AD01A7811
:102BB000022A40D01A7802F0FF0052B92F4A116859
:102BC0000131116011683C293CDC1B78052B06D0D3
:102BD000F8BD2A4A002111601B78052BF8D1284B3B
:102BE00022681A601C681620E1B203F013FCC4F3DB
:102BF0000721172003F00EFC2248FFF799F84FF445
:102C0000FA7003F0ADFE2049204B15200122086028
:102C10001A60F8BD1E482168FFF78AF8164B1A782B
:102C2000012AC4D122681249142A13DD053A0A6028
:102C30001A78022ABED122680D494F2A0FDC0532CC
:102C40000A60B7E7104E11491527012537600D605E
:102C50001060BAE71A785020022A0860AAD114221C
:102C60002260A7E73896FF1F804F12005C9BFF1F72
:102C70003096FF1F18D30000C89AFF1F709BFF1FDC
:102C8000608AFF1FF0D30000008AFF1FB89AFF1F61
:102C9000E4D30000F8B5364B1A680AB9354A1A6011
:102CA000354B364C1B78002B3AD035482168FFF75E
:102CB0003FF8344B1A78012A3AD01A78022A40D0C9
:102CC0001A7802F0FF0052B92F4A116801311160E1
:102CD00011683C293CDC1B78052B06D0F8BD2A4A3C
:102CE000002111601B78052BF8D1284B22681A604F
:102CF0001C681820E1B203F08DFBC4F307211920F2
:102D000003F088FB2248FFF713F84FF4FA7003F042
:102D100027FE2049204B1520022208601A60F8BDCA
:102D20001E482168FFF704F8164B1A78012AC4D10F
:102D300022681249012A13DD52100A601A78022A09
:102D4000BED122680D493F2A0FDC52000A60B7E766
:102D5000104E11491527022537600D601060BAE743
:102D60001A784020022A0860AAD101222260A7E72F
:102D70003896FF1F804F12005C9BFF1F4496FF1F79
:102D800024D30000C89AFF1F709BFF1F6C8AFF1F8F
:102D9000F0D30000008AFF1FB89AFF1FE4D30000A1
:102DA000F8B5364B1A680AB9354A1A60354B364CB5
:102DB0001B78002B3AD035482168FEF7B9FF344B19
:102DC0001A78012A3AD01A78022A40D01A7802F0EA
:102DD000FF0052B92F4A11680131116011683C2976
:102DE0003CDC1B78052B06D0F8BD2A4A0021116077
:102DF0001B78052BF8D1284B22681A601C6820200C
:102E0000E1B203F007FBC4F30721212003F002FB2A
:102E10002248FEF78DFF4FF4FA7003F0A1FD204920
:102E2000204B1520032208601A60F8BD1E48216857
:102E3000FEF77EFF164B1A78012AC4D12268124988
:102E4000142A13DD053A0A601A78022ABED12268D4
:102E50000D494F2A0FDC05320A60B7E7104E1149C1
:102E60001527032537600D601060BAE71A785020E7
:102E7000022A0860AAD114222260A7E73896FF1F11
:102E8000804F12005C9BFF1F3096FF1F30D3000065
:102E9000C89AFF1F709BFF1F108AFF1FF0D300000E
:102EA000008AFF1FB89AFF1FE4D30000F8B5464B15
:102EB0001A680AB9454A1A60454C2368012B75D037
:102EC000022B6FD0002B29D0424B1B68424A12784C
:102ED000002A29D0414A424852F82310FEF728FF21
:102EE000404B1A78012A29D01A78022A2FD01A7852
:102EF00002F0FF00002A35D13B4A11680131116010
:102F000011683C2906DD394E3949152704253760FB
:102F10000D6010601B78052B2AD0F8BD2D4A136078
:102F20002D4A1278002AD5D12C4A324852F8231063
:102F3000FEF7FEFE2B4B1A78012AD5D122682449D0
:102F4000002A3ADD013A0A601A78022ACFD12268B3
:102F50001F49012A2EDD002222601A7802F0FF00AC
:102F6000002AC9D0204A002111601B78052BD4D13A
:102F70002468214BE1B212201C6003F04BFAC4F329
:102F80000721132003F046FA1C48FEF7D1FE4FF448
:102F9000FA7003F0E5FC1549154B15200422086072
:102FA0001A60F8BD0B4A042313608FE7094A032314
:102FB00013608BE701320A6099E71A780220824297
:102FC000086094D1C7E700BF3896FF1F804F1200FA
:102FD000749AFF1F6896FF1F5C9BFF1F448AFF1FA8
:102FE0003CD30000C89AFF1F709BFF1F008AFF1F81
:102FF000B89AFF1FFCD300006496FF1FF0D30000B7
:1030000070B53D4B1A6882B00AB93C4A1A603C4B15
:103010003C4C1B78002B60D03B482168FEF788FEB3
:103020003A4B1A781978032A226804BF0A3A2260B8
:103030000429197804BF0A3222600129197804BFD3
:1030400002F1FF322260022904BF01322260002A0D
:103050004FDDF72AC4BF012222601A7802F0FF0078
:103060005AB92B4A11680131116011683C2939DCC9
:103070001B78052B07D002B070BD254A00211160D6
:103080001B78052BF7D12468224DE1B206202C6075
:1030900003F0C0F9C4F30721072003F0BBF903F0E4
:1030A0007DFE03F00FFE1C4B1C4918682A78098826
:1030B00000243A238DE81800022302F057FB184839
:1030C000FEF736FE4FF4FA7003F04AFC154A164B31
:1030D000162111601C6002B070BD14482168FEF713
:1030E00027FE9DE70F4D104916262E6008601060E0
:1030F000BEE7F7222260B0E73896FF1F804F12002C
:103100005C9BFF1F048AFF1F44D30000C89AFF1F67
:10311000709BFF1F848AFF1FBC9AFF1F9C9AFF1F92
:10312000F0D30000008AFF1FB89AFF1F04D40000EC
:10313000F0B5494B1A6883B00AB9484A1A60484B3F
:10314000484C1B78002B4FD047482168FEF7F0FD14
:10315000464B1A78012A4FD01A78022A5CD01A7886
:1031600002F0FF005AB9424A11680131116011683A
:103170003C295BDC1B78052B07D003B0F0BD3C4A33
:10318000002111601B78052BF7D12368394C3A4D8B
:10319000A4FB0324C4F3471108202B6003F03AF981
:1031A000C4F34731092003F035F903F0F7FD03F0CC
:1031B00089FD324B324A1988127828683A23002454
:1031C0008DE81800022302F0D1FA2E48FEF7B0FD78
:1031D0004FF4FA7003F0C4FB2B492C4B162001224C
:1031E00008601A6003B0F0BD29482168FEF7A0FD11
:1031F0001E4B1A78012AAFD126490A68002A26DD1B
:10320000013A25480A6030F81210642202FB01F2EC
:1032100022601A78022AA2D11E490A68052A0DDD09
:1032200000220A604FF49662226098E7164E174912
:103230001627012537600D6010609BE701321648A4
:103240000A6030F81210642202FB01F2ECE7062259
:103250000A604FF4E132DBE73896FF1F804F12001F
:103260005C9BFF1F049CFF1F50D30000C89AFF1FE8
:10327000709BFF1F1F85EB51BC9AFF1F9C9AFF1F7D
:10328000848AFF1FF0D30000008AFF1FB89AFF1F37
:1032900010D40000888AFF1FB8D1000070B5474BDA
:1032A0001A6882B00AB9464A1A60464B464C1B78E7
:1032B000002B4FD0454B2268454853F82210FEF7AB
:1032C00037FD444B1A78012A4FD01A78022A5AD077
:1032D0001A7802F0FF005AB93F4A116801311160B3
:1032E00011683C2958DC1B78052B07D002B070BD53
:1032F000394A002111601B78052BF7D1374B384D27
:103300001C682C60E1B2102003F084F8C4F307219C
:10331000112003F07FF803F041FD03F0D3FC314BA3
:10332000314A1868298812783A2300248DE8180059
:10333000022302F01BFA2D48FEF7FAFC4FF4FA7054
:1033400003F00EFB2A492B4B1620022208601A605C
:1033500002B070BD1D4B2268274853F82210FEF7BB
:10336000E7FC1C4B1A78012AAFD122681649002AC3
:1033700020DD013A21480A6050F82210174A1160F6
:103380001A78022AA4D122680F49022A0CDD0022F1
:103390000A6012490A609BE7154D16491626022459
:1033A0002E600C6010609EE7013214480A6050F8ED
:1033B0002220EEE703220A600421DFE73896FF1F90
:1033C000804F12005C9BFF1F088AFF1F308AFF1F7F
:1033D00058D30000C89AFF1F709BFF1FF49BFF1F6C
:1033E0009C9AFF1FBC9AFF1F848AFF1FF0D3000026
:1033F000008AFF1FB89AFF1F18D4000000D50000F4
:103400003F4B1A6870B50AB93E4A1A603E4B3F4CB2
:103410001B78002B4ED03E482168FEF789FC3D4BBF
:103420001A78032A4ED019782268042955D01978C1
:103430000129197804BF02F1FF322260022904BF7A
:1034400001322260002A57DB42F20F718A42C4BF68
:10345000002222601A7802F0FF0052B92E4A116849
:103460000131116011683C293FDC1B78052B06D027
:1034700070BD294A002111601B78052BF8D1274B1C
:1034800022681A601C683220E1B202F0C3FFC4F364
:103490000721332002F0BEFF2148FEF749FC4FF41C
:1034A000FA7003F05DFA1F491F4B172000220860D5
:1034B0001A6070BD1D482168FEF73AFC154B1A785A
:1034C000032AB0D11A4A12681978132A2268D4BF85
:1034D0000A3A643A04292260A9D1154909681329D6
:1034E000D4BF0A3264322260A1E70E4D0E4917267E
:1034F0002E6008601060B8E742F20F722260A9E700
:103500003896FF1F804F12005C9BFF1F949AFF1F8D
:1035100060D30000C89AFF1F709BFF1FCC9AFF1F4B
:10352000F0D30000008AFF1FB89AFF1F20D40000CC
:10353000B09AFF1FF8B5404B1A680AB93F4A1A60A3
:103540003F4B404C1B78002B4ED03F482168FEF784
:10355000EFFB3E4B1A78032A4ED0197822680429D3
:1035600055D019780129197804BF02F1FF32226081
:10357000022904BF01322260002A58DB42F20F7197
:103580008A42C4BF002222601A7802F0FF0052B9BA
:103590002F4A11680131116011683C293FDC1B780A
:1035A000052B06D0F8BD2A4A002111601B78052B97
:1035B000F8D1284B22681A601C683420E1B202F06E
:1035C00029FFC4F30721352002F024FF2248FEF72B
:1035D000AFFB4FF4FA7003F0C3F92049204B1720DA
:1035E000012208601A60F8BD1E482168FEF7A0FBA2
:1035F000164B1A78032AB0D11B4A12681978132A7D
:103600002268D4BF0A3A643A04292260A9D1164933
:1036100009681329D4BF0A3264322260A1E70F4E31
:103620000F491727012537600D601060B7E742F298
:103630000F722260A8E700BF3896FF1F804F12006C
:103640005C9BFF1F4096FF1F68D30000C89AFF1FB6
:10365000709BFF1F0C9CFF1FF0D30000008AFF1F10
:10366000B89AFF1F20D40000B09AFF1FF8B5404B56
:103670001A680AB93F4A1A603F4B404C1B78002B2E
:103680004ED03F482168FEF753FB3E4B1A78032A81
:103690004ED019782268042955D019780129197853
:1036A00004BF02F1FF322260022904BF013222600E
:1036B000002A58DB42F20F718A42C4BF0022226006
:1036C0001A7802F0FF0052B92F4A116801311160D7
:1036D00011683C293FDC1B78052B06D0F8BD2A4A2F
:1036E000002111601B78052BF8D1284B22681A6045
:1036F0001C683620E1B202F08DFEC4F307213720AA
:1037000002F088FE2248FEF713FB4FF4FA7003F034
:1037100027F92049204B1720022208601A60F8BDC3
:103720001E482168FEF704FB164B1A78032AB0D115
:103730001B4A12681978132A2268D4BF0A3A643ADD
:1037400004292260A9D1164909681329D4BF0A3275
:1037500064322260A1E70F4E0F4917270225376018
:103760000D601060B7E742F20F722260A8E700BF59
:103770003896FF1F804F12005C9BFF1F789AFF1F37
:1037800070D30000C89AFF1F709BFF1F609BFF1F34
:10379000F0D30000008AFF1FB89AFF1F20D400005A
:1037A000B09AFF1F2F4B1A6870B50AB92E4A1A60DB
:1037B0002E4B2F4C1B78002B48D02E482168FEF74B
:1037C000B7FA2D4B1A781978012A226804BF053AF6
:1037D0002260022904BF05322260042A31DC2D2236
:1037E00022601A7802F0FF0052B9244A11680131B0
:1037F000116011683C292EDC1B78052B06D070BDAA
:103800001E4A002111601B78052BF8D11C4B226841
:103810001A601C682220E1B202F0FCFDC4F307210B
:10382000232002F0F7FD1748FEF782FA4FF4FA70F2
:1038300003F096F81449154B1820002208601A600E
:1038400070BD2D2AC4BF05222260CAE71048216836
:10385000FEF76EFAB5E70C4D0C4918262E6008608D
:103860001060C9E73896FF1F804F12005C9BFF1F56
:103870003C96FF1F78D30000C89AFF1F709BFF1F64
:103880003496FF1FF0D30000008AFF1FB89AFF1F75
:1038900028D40000F8B5304B1A680AB92F4A1A60CC
:1038A0002F4B304C1B78002B48D02F482168FEF757
:1038B0003FFA2E4B1A781978012A226804BF053A7C
:1038C0002260022904BF05322260362A31DC5F22E1
:1038D00022601A7802F0FF0052B9254A11680131BE
:1038E000116011683C292EDC1B78052B06D0F8BD31
:1038F0001F4A002111601B78052BF8D11D4B22684F
:103900001A601C682420E1B202F084FDC4F3072190
:10391000252002F07FFD1848FEF70AFA4FF4FA70EE
:1039200003F01EF81549164B1820012208601A6092
:10393000F8BD5F2AC4BF37222260CAE71148216858
:10394000FEF7F6F9B5E70D4E0D491827012537604A
:103950000D601060C8E700BF3896FF1F804F12004F
:103960005C9BFF1FD09AFF1F84D30000C89AFF1FE3
:10397000709BFF1F5896FF1FF0D30000008AFF1FA7
:10398000B89AFF1F28D40000F8B5394B1A680AB955
:10399000384A1A60384B394C1B78002B3DD0384BD5
:1039A0002268384853F82210FEF7C2F9364B1A78CD
:1039B000012A3DD01A78022A43D01A7802F0FF007B
:1039C00052B9324A11680131116011683C293FDC5B
:1039D0001B78052B06D0F8BD2C4A002111601B78FE
:1039E000052BF8D12A4B22681A601C682620E1B208
:1039F00002F010FDC4F30721272002F00BFD25483B
:103A0000FEF796F94FF4FA7002F0AAFF2249234B11
:103A10001820022208601A60F8BD194B226820485D
:103A200053F82210FEF784F9174B1A78012AC1D1F6
:103A300022681249022A13DC01320A601A78022A2B
:103A4000BBD122680D49002A0FDD013A0A60B4E7B4
:103A5000114E12491827022537600D601060B7E734
:103A60001A780020022A0860A7D103222260A4E766
:103A70003896FF1F804F12005C9BFF1F849AFF1F28
:103A8000188AFF1F90D30000C89AFF1F709BFF1F6A
:103A90004C9BFF1FF0D30000008AFF1FB89AFF1F46
:103AA000FCD30000F8B5394B1A680AB9384A1A60D5
:103AB000384B394C1B78002B3DD0384B22683848A6
:103AC00053F82210FEF734F9364B1A78012A3DD00C
:103AD0001A78022A43D01A7802F0FF0052B9324A0B
:103AE00011680131116011683C293FDC1B78052BFE
:103AF00006D0F8BD2C4A002111601B78052BF8D1A7
:103B00002A4B22681A601C682820E1B202F082FC6D
:103B1000C4F30721292002F07DFC2548FEF708F9AF
:103B20004FF4FA7002F01CFF2249234B18200322A5
:103B300008601A60F8BD194B2268204853F822101B
:103B4000FEF7F6F8174B1A78012AC1D122681249FC
:103B5000022A13DC01320A601A78022ABBD12268D9
:103B60000D49002A0FDD013A0A60B4E7114E1249EF
:103B70001827032537600D601060B7E71A7800201A
:103B8000022A0860A7D103222260A4E73896FF1F0B
:103B9000804F12005C9BFF1F6096FF1F748AFF1FFF
:103BA00098D30000C89AFF1F709BFF1F509BFF1FF8
:103BB000F0D30000008AFF1FB89AFF1FFCD300005B
:103BC000F8B5364B1A680AB9354A1A60354B364C87
:103BD0001B78002B51D035482168FEF7A9F8344BEB
:103BE0001A781978032A226804BF0A3A2260042945
:103BF000197804BF0A3222600129197804BF02F142
:103C0000FF322260022904BF01322260002A41DB18
:103C1000B2F5FA6FC4BF002222601A7802F0FF00EA
:103C200052B9244A11680131116011683C2929DC1C
:103C30001B78052B06D0F8BD1E4A002111601B78A9
:103C4000052BF8D11C4B22681A601C683020E1B2A9
:103C500002F0E0FBC4F30721312002F0DBFB174840
:103C6000FEF766F84FF4FA7002F07AFE1449154B2D
:103C70001820042208601A60F8BD13482168FEF776
:103C800057F8ACE70E4E0F491827042537600D6032
:103C90001060CDE74FF4FA622260BEE73896FF1F4E
:103CA000804F12005C9BFF1F749BFF1FA0D300007E
:103CB000C89AFF1F709BFF1FAC9AFF1FF0D3000034
:103CC000008AFF1FB89AFF1F20D4000070B5474B31
:103CD0001A6882B00AB9464A1A60464C236833B95A
:103CE000454B1B78002B58D04448FEF721F8236839
:103CF000012B58D0424B1A78012A5ED01A78022A3A
:103D000066D01A7802F0FF0062B93E4A11680131AC
:103D1000116011683C2939DC1B78DBB2052B08D017
:103D200002B070BD374A002111601B78DBB2052B51
:103D3000F6D122682F491AB9334A192010600B6056
:103D400023682C4C012BEBD1FCF752FEFCF72AFF29
:103D500003F024F802F0B6FF2C4B2D4A2D491868C9
:103D6000127809883A2300258DE82800022301F003
:103D7000FDFC2948FDF7DCFF4FF4FA7002F0F0FD7E
:103D8000214A1921052311602360C9E71E4D192618
:103D900005212E6021601060BEE72048FDF7C8FFB6
:103DA0002368012BA6D1144B1B78DBB11C48FDF70F
:103DB000BFFF134B1A78012AA0D121680D4A0029B0
:103DC000D6BF11680021013111601A78022A98D1FA
:103DD00022680849002ACABF0A68012202F1FF329C
:103DE0000A608EE70F48FDF7A3FF83E73896FF1FB1
:103DF000804F1200B89AFF1F5C9BFF1F34D4000055
:103E0000C89AFF1F709BFF1F008AFF1FBC9AFF1FED
:103E1000848AFF1F9C9AFF1F64D4000040D40000D6
:103E20004CD4000058D400001B491C4A086838B51F
:103E300013680343032B00F2E581DFE813F04B0125
:103E40003900040004000B681348022B00F05B816A
:103E50001368022B00F06481114B1248124A0324AC
:103E60001C700368013303601378002B40F06881F5
:103E70000E4B1A68DD2A2BD01A68F52A28D01A684A
:103E8000E72A25D01A68E82A22D01A68E92A1FD022
:103E900000220A6002601BE0889AFF1F8C9AFF1FB5
:103EA000C89AFF1FB09AFF1F0C8AFF1F008AFF1FCE
:103EB0001368012B044B14BF01200220187000204E
:103EC000024B0860106003E0C89AFF1F008AFF1FC2
:103ED0001B68013BFA2B00F20481DFE813F0330189
:103EE0003601020102010201020102010201020186
:103EF000020139013C010201020102010201020139
:103F00000201020102013F014201450148014B014A
:103F10000201020102010201020102010201020189
:103F20000201020102010201020102010201020179
:103F30000201020102010201020102010201020169
:103F40000201020102010201020102010201020159
:103F50000201020102010201020102010201020149
:103F60000201020102010201020102010201020139
:103F70000201020102010201020102010201020129
:103F80000201020102010201020102010201020119
:103F90000201020102010201020102010201020109
:103FA00002010201020102010201020102010201F9
:103FB00002010201020102010201020102010201E9
:103FC00002010201020102010201020102010201D9
:103FD00002010201020102010201020102010201C9
:103FE00002010201020102010201020102010201B9
:103FF00002010201020102010201020102010201A9
:104000000201020102010201020102010201020198
:104010000201020102010201020102010201020188
:104020000201020102010201020102010201020178
:104030000201020102010201020102010201020168
:104040000201020102010201020102010201020158
:104050000201020102010201020102010201020148
:104060000201020102010201020102010201020138
:104070000201020102010201020102010201020128
:1040800002014E015101540157015A01020102017E
:104090000201020102015D016001630102010201EE
:1040A00002010201020102010201660169016C01C3
:1040B00002010201020102010201020102016F017B
:1040C0007201750178017B01020102010201020106
:1040D000020100014C4A4D4B00211170F8E6FFF738
:1040E000F5FD4B4B4B4A4C494FF4FA70186013786E
:1040F00083F0010313700B68DB0754BF474B484B39
:1041000001221A6038BD1368464D022B7FF4A0AE21
:104110003D493E4B002205240C7002602A60D7E620
:10412000394B4148414904241C7003680133036042
:104130000B78002B51D0354B002111600160C7E690
:10414000324BA5E6FDF784FECBE7FDF7CFFFC8E7CE
:10415000FDF70CFEC5E7FDF72FFFC2E7FEF7B2F84B
:10416000BFE7FEF793F9BCE7FEF75AFAB9E7FEF7A7
:10417000F3FAB6E7FEF7DEFBB3E7FEF77FFCB0E746
:10418000FEF702FDADE7FEF785FDAAE7FEF708FEA4
:10419000A7E7FEF78BFEA4E7FEF732FFA1E7FEF7E5
:1041A000C7FF9EE7FFF77AF89BE7FFF729F998E743
:1041B000FFF7C0F995E7FFF759FA92E7FFF7F2FA30
:1041C0008FE7FFF767FB8CE7FFF7DEFB89E7FFF779
:1041D00069FC86E7FFF7F4FC83E70C4B1968DD29DF
:1041E0003FF476AE1968F5293FF472AE1968E729F5
:1041F0003FF46EAE1968E8293FF46AAE1968E92900
:104200009AD165E6014B63E6C89AFF1F008AFF1F3B
:10421000409BFF1F5C9BFF1F50F00F4044F00F407E
:1042200048F00F408C9AFF1FB09AFF1F148AFF1F9F
:1042300008B5FCF759FCFCF763FDFCF791FDFDF7B1
:1042400035F9FDF7F9F9044B1B6803B108BDBDE86A
:104250000840FFF7E9BD00BF409BFF1F2DE9F04775
:10426000012182B0102002F02DFB01210F2002F06D
:1042700029FB01210E2002F025FB0121082002F07C
:1042800021FB0121092002F01DFB0121102002F079
:1042900005FB00210F2002F001FB0021082002F0A5
:1042A000FDFA01210E2002F0F9FA0021092002F0A6
:1042B000F5FA0221112002F005FB0221122002F082
:1042C00001FB0422A649A74DA74EDFF80893112051
:1042D00002F056FA0422A549122002F051FA0221F6
:1042E000132002F0EFFA0221142002F0EBFA012170
:1042F000212002F0E7FA0121202002F0E3FA9C4895
:1043000001F0B0FD9B4B9A48197801F07BFD9A486B
:10431000FDF70EFD4FF4FA7002F022FBFCF7D4FC1F
:104320000121182002F0CEFA944B954820271F60F7
:10433000182101F0D3F8934B9148196889B201F024
:10434000E3F801210A2002F0BDFA01210A2002F05F
:10435000A5FA8D4801F0CCF900210846FCF7E0FDF4
:104360008A4B8B4A8B4918681278098800244FF0D1
:104370003A0E40F22F1C322344F25168CDF800E08F
:104380000194A5F806C0A5F800E06B80A5F80480AC
:104390000223A5F86C4001F0E9F92146222002F041
:1043A00091FA2146232002F08DFA2246306801213D
:1043B00000F066F922463068092100F043F92246F0
:1043C0003068052100F048F922463068042100F0E9
:1043D0004DF9714B306819682246C9B200F06EF988
:1043E0006E496F4A0B68DFF8E4E11A609C800A7935
:1043F000C3F810E002F1804202F5043201254FF0CB
:104400000208C820DFF8D0C1D8834FF0A80ED882A8
:10441000C3F818C0DD719D71C3F80880DC60A3F893
:104420001480147082F800E0D1F800A00A79BAF87C
:104430001C30DFF8A8C130689BB243EA0803AAF831
:104440001C30BAF81CE0531103FA08F31FFA8EFE71
:104450004EF0080E03F1604303F56143AAF81CE037
:1044600002F1100E02F01F02394605FA02F74CF86D
:104470002E902A461F6000F003F92A4630680C216E
:1044800000F0E0F82A462146306800F0E5F82A46B8
:104490002146306800F0EAF82A462621306800F00C
:1044A00017F92A462621306800F0C2F9294616205D
:1044B00002F008FA2146162002F0F0F929461720EA
:1044C00002F000FA4146152002F0FCF9354A364B5D
:1044D000102111701B683549B3F57A7FB4BF42468D
:1044E0000322152002F04CF9314B196800221A7191
:1044F00021B1304B30480B441B111A542F4D14245A
:104500002B4801F0C7FE4CF2503292FBF4F202EB62
:1045100042021201013A2A49254801F071FE214662
:1045200028602848FDF704FC0134642002F018FAE2
:10453000652CE5D101F0A6FB0021234801F0C6FB64
:104540004FF4C8720021214805F06AF820484FF462
:104550004872002102B0BDE8F04705F061B800BF25
:1045600081060000789BFF1F089CFF1FC10600000A
:104570006C96FF1F288AFF1F70D4000008F00F40C0
:10458000689BFF1F0C9CFF1F8C8AFF1FBC9AFF1F9C
:10459000848AFF1F9C9AFF1F2C8AFF1F7C9AFF1F93
:1045A00010B003405AE400E0AC9AFF1F010700007E
:1045B000EC9BFF1F008FFCBF44E400E0B49AFF1F98
:1045C000790400007CD40000F51300000082FF1F76
:1045D0005497FF1FD905000070FEFFFF0084FF1FE6
:1045E00038B5124A124B00F1A8050021044600F02C
:1045F000BFFB28460F4B104A012100F0B9FB0F49C1
:104600000F4A022384F850310B68C4F8585143F024
:104610000063C4F86051C4F85441C4F85C410B60B5
:10462000136843F000632046136038BD14D50000C2
:104630006CD5000010D5000040D500003C8004403F
:1046400030800440012A03D0D0F8540100F030BA81
:10465000D0F8580100F02CBA012A03D0D0F8540148
:1046600000F06EBAD0F8580100F06ABA012A03D0FF
:10467000D0F8540100F0EABAD0F8580100F0E6BAD8
:10468000012A03D0D0F8540100F06EB9D0F85801D7
:1046900000F06AB9012903D0D0F8540100F026BC1B
:1046A000D0F8580100F022BC012903D0D0F8540101
:1046B00000F02ABCD0F8580100F026BC012A03D033
:1046C000D0F8540100F028BCD0F8580100F024BC08
:1046D000531C13D02AB1012A07D1D0F8580100F099
:1046E000B5BCD0F8540100F0B1BCD0F85421214839
:1046F000D38A9BB243F00103D382704770B504465E
:10470000D0F854010D4600F04BFC29460646D4F87B
:10471000580100F045FC76B1A8B1D4F85431D4F872
:104720005801597D427D914298BF18462946BDE8FF
:10473000704000F08BBC68B12946D4F85801BDE840
:10474000704000F083BC2946D4F85401BDE87040A5
:1047500000F07CBCD4F85411D4F85821CB8A054819
:104760009BB243F00403CB82D38A9BB243F0040391
:10477000D38270BD90EEFEFFF8B55C1C17D03BB144
:10478000012B0BD1D0F85801BDE8F84000F0ECBC8B
:10479000D0F85401BDE8F84000F0E6BCD0F8542150
:1047A000D38A9BB243F00103D3822048F8BD04466C
:1047B000D0F8540116460D4600F0FEFB324607467F
:1047C0002946D4F8580100F0F7FB7FB1B8B1D4F80E
:1047D0005431D4F85801597D427D914232462946E0
:1047E000D2D81846BDE8F84000F0BEBC78B13246D9
:1047F0002946D4F85801BDE8F84000F0B5BC32466F
:104800002946D4F85401BDE8F84000F0ADBCD4F816
:104810005411D4F85821CB8A9BB243F00403CB82C5
:10482000D38A9BB243F00403D382BEE790EEFEFF2F
:10483000531C0FD052B1012A3AD0D0F85421D38A58
:104840009BB243F00103D38200207047D0F854019B
:1048500000F012BD70B50446D0F854010D4600F0CA
:104860009FFB29460646D4F8580100F099FB76B123
:1048700010B3D4F85431D4F85801597D427D914297
:1048800098BF18462946BDE8704000F0F5BCD0B985
:10489000D4F85411D4F85821CB8A9BB243F00403C6
:1048A000CB82D38A9BB243F00403D382002070BD35
:1048B000D0F8580100F0E0BC2946D4F85401BDE816
:1048C000704000F0D9BC2946D4F85801BDE87040CA
:1048D00000F0D2BCC36A1A788A4205D09A788A421C
:1048E00001D00020704702335A7802F01F031F2BBB
:1048F000F7D0836D5B0103F18443DB6D0BB1D0090D
:1049000070470120704700BF90F821308B421BD0C8
:10491000012970B419D051B9104A114B1170197096
:10492000036D80F821105B0103F18443196072B6B6
:10493000436D5B0103F18443012200214276D9617A
:104940009A61DA6162B670BC7047064D034A044B47
:104950006026E1242E701470E1E700BF014007409B
:104960004000FA420040074038B5437E04460D46F9
:10497000DBB9636D012D4FEA431303F184431DD965
:104980000121042D996009D9082D23D9102D1AD998
:1049900020225960196084F8202038BD00210422AB
:1049A0005960196084F8202038BD00F01BF8636D51
:1049B000012D4FEA431303F18443E1D800229A60AA
:1049C00084F8202038BD00221A601022596084F833
:1049D000202038BD002008221960586084F820206B
:1049E00038BD00BFF8B5436D5B0103F18443044655
:1049F000DA6942B103F09AF9636D5B0103F1844314
:104A0000DA69002AF6D19B6923B1E38A9BB243F0AD
:104A10000203E38272B6637E002B36D0E16E236F11
:104A2000626F0F68A06F1B68E16F16680568D4F8A5
:104A3000802009681268206E3B4433442B440B44A9
:104A40001344C3F34E03D4F88850D4F88C10D4F830
:104A5000902043F4004303602F68D4F894000B685F
:104A60001668D4F898100568D4F89C200968126874
:104A7000606E3B4433442B440B441344C3F34E0356
:104A800043F4004300220360627662B6A37E6BB1FA
:104A90000221204600F054F80221204600F0D6F80A
:104AA00004212046FFF760FF0023A376F8BD00BF76
:104AB00038B5C37E8B4211D0437E04460D466BBB96
:104AC000092D0CD8A36B5B0103F18443002108225C
:104AD000D960FF209960E276E06138BD38BD0B2DCA
:104AE0001FD90D2D0DD8A36B5B0103F18443012267
:104AF0009A6000200C22D86040F6FF71E276E161F6
:104B000038BDA36B5B0103F1844301211022D960FE
:104B10004FF6FF709960E276E06138BDFFF762FF03
:104B2000CEE7A36B5B0103F1844300229A6001206E
:104B30000A22D86040F2FF31E276E16138BD00BF61
:104B400090F823308B4258D070B5437E05460C4612
:104B5000002B35D1A31F032BEA6B17D9520102F1A9
:104B600084420020D060002C2DD1AB6B94605B019F
:104B700003F1844301221146DA61164600201960D0
:104B800058605E619A6185F8234070BDAB6B52013D
:104B90005B0103F1844302F1844201210020062CD1
:104BA000D160596019609861586127D0072C2AD0CC
:104BB000082C0CBF90609160D86185F8234070BDCF
:104BC000FFF710FFC6E7012C0DD0022C33D0032CC9
:104BD0001CD0042C1AD0052C23D0EB8A9BB243F0B6
:104BE0000103EB8270BDAB6B90605B0103F184430A
:104BF0002146DC6122462646C0E770479060D961B5
:104C000085F8234070BD9160D961BCE7AB6B5B0157
:104C100003F184430126966001463246D861064678
:104C2000ACE7AB6B5B0103F1844301269660014660
:104C3000D8610246A2E7AB6B90605B0103F184434D
:104C40000122D8610146164698E700BF38B5437E79
:104C500004460D467BB9042D0AD8DFE805F00F1F86
:104C60002F3F0300A36B5B0103F1844300221A6111
:104C700084F8245038BDFFF7B5FEECE7A26BE36B78
:104C800052015B0103F1844302F1844200210120BF
:104C900010615960196084F8245038BDA26BE36B31
:104CA00052015B0103F1844302F18442012100209F
:104CB00011611960586084F8245038BDA26BE36B11
:104CC00052015B0103F1844302F18442012100207F
:104CD00011611860596084F8245038BDA26BE36BF1
:104CE00052015B0103F1844302F18442012111610D
:104CF0005960196084F8245038BD00BFC36B5B0154
:104D000003F18443022270B505210026012580F8B5
:104D10002120042280F82420044680F82310C6763F
:104D2000C66180F820604676C682467580F82250BB
:104D300031461D61FFF7E8FD0A21FFF7B9FE204665
:104D4000A5762021FFF710FE29462046FFF7F8FE42
:104D500029462046FFF77AFF72B6636D65765B01E0
:104D600003F18443DE619D61DD6162B670BD00BF09
:104D7000F8B504468262C362017600294CD04D4BDF
:104D800023631C33E3644C4F4C4E4D4D4D484E490C
:104D90004E4A67631833A3662033A663E563206435
:104DA0006164A264C4F884301C371C364435183062
:104DB00018311832A3F5052327656665A565E065FA
:104DC0002166626618371836103D1C301C311C32C3
:104DD0001C3BE76626676567A067E167C4F880202B
:104DE00020312032C4F8A03020373A232036203535
:104DF0002030C4F89400C4F888702046C4F88C6051
:104E0000C4F89050C4F89810C4F89C2084F8A430DA
:104E1000FFF774FF2046F8BD2D4B23631C33E3647A
:104E20002C4F2D4E2D4D2E482E492F4A6763183397
:104E3000A3662033A663E56320646164A264C4F8BA
:104E400084301C371C364435183018311832A3F51D
:104E5000A04327656665A565E0652166626618372B
:104E60001836103D1C301C311C32443BE766266767
:104E70006567A067E167C4F8802020312032C4F85C
:104E8000A03020373923203620352030C4F8940054
:104E9000C4F888702046C4F88C60C4F89050C4F8F8
:104EA0009810C4F89C2084F8A430FFF727FF204610
:104EB000F8BD00BF00B00B4004B00B4008B00B4081
:104EC0000CB00B4010B00B4014B00B4018B00B40AE
:104ED00000B0034004B0034008B003400CB00340EE
:104EE00010B0034014B0034018B00340437E10B527
:104EF00004460BB1FFF776FD236D5B0103F184439C
:104F000001229A6010BD00BF036D5B0103F1844371
:104F100000229A60704700BF38B5437E05460C46B4
:104F2000EBB9012C1FD9022C12D0042C2BD9082C40
:104F300021D9102C2FD9202CAB6D8BBF40242024DD
:104F40004FF406024FF405021A6085F8224038BD7E
:104F50004FF40102AB6D1A6085F8224038BDFFF7AF
:104F600041FD012CDFD8AB6D01244FF400021A6023
:104F700085F8224038BDAB6D08244FF403021A6057
:104F800085F8224038BDAB6D04244FF402021A604C
:104F900085F8224038BD10244FF40402DAE700BF40
:104FA0002B2907D8836A585C00F01F001F3818BFF0
:104FB00001207047002070472B2905D8826A535C76
:104FC0005B0601D5FFF786BC00207047836AC26B81
:104FD0005B5C5201190602F184424CBF00210121A1
:104FE000116172B6016B4A0102F1844203F01F03A2
:104FF0009269003218BF012203EB82130B6062B684
:10500000704700BFC36A1A788A421DD09A788A42D4
:1050100018BF1F2217D0836D5B0103F18443DB6D42
:1050200073B1022272B6016B4B0103F184439B6999
:10503000002B14BF6023202313440B6062B670471B
:1050400002F01F02EEE702335A78E4E72B292DE93C
:10505000F84F82465BD8836A5B5C03F01F031F2B0B
:1050600055D0437D427E01338B464375002A75D16E
:10507000DAF850305B0103F18443DC69003418BF77
:105080000124002C4DD1A046A146264627462546A0
:10509000DAF854305B0103F1844300225946DA60A8
:1050A0005046FFF793FF01E002F040FEDAF850307F
:1050B0005B0103F18443DB69002BF5D172B6DAF8AA
:1050C00030305B0103F18443DB69002B3DD0DAF81B
:1050D0004030186880B262B694B172B6DAF83820FF
:1050E000DAF83C30DAF85010C2F80090DAF85420C0
:1050F000C3F80080DAF830300F6016601D6062B6C9
:105100009AF81530013B8AF81530BDE8F88FBAF8E7
:10511000163014489BB243F00403AAF81630BDE8D9
:10512000F88F72B6DAF83050DAF83800DAF83C1056
:10513000DAF85020DAF854302D68D0F80090D1F821
:10514000008017681E6862B6A2E7BAF816300548F4
:105150009BB243F08003AAF81630BCE7FFF742FC8D
:1051600086E700BF90EEFEFF2DE9F04F2B2983B0BC
:10517000044604D8836A5B5C5B06884608D4E38AED
:105180003C489BB243F00403E38203B0BDE8F08FD8
:105190009146FFF79FFB0028F1D0637D627E0133CB
:1051A0006375002A60D1236DE67E5B0103F18443C1
:1051B000DD69003518BF0125002D4FD072B6A76BF1
:1051C000E06B216D636D226B12683F68D0F800A020
:1051D000D1F800B01B680092019362B6636D5B0169
:1051E00003F184430020D8604A4641462046FFF739
:1051F00009FF01E002F09AFD236D5B0103F1844396
:10520000DB69002BF6D172B6236B5B0103F184439B
:10521000DB69E3B1236C1868102E00B228D062B6A7
:105220007DB172B6A26BE36B216D1760626DC3F83E
:1052300000A0236BC1F800B001991160009A1A60B8
:1052400062B6637D013B637503B0BDE8F08FE38A0E
:1052500008489BB243F08003E382E0E7AA462F466A
:105260000195AB460095B9E72046FFF7BBFB9AE7EF
:105270004000D4E790EEFEFF2B2970B5044617D806
:10528000836A5B5C03F01F031F2B11D0437E0E4625
:10529000ABB9636D627D5B0103F18443013201258B
:1052A000627520463146DD60FFF790FE284670BDEE
:1052B000E38A9BB243F00403E382002070BDFFF752
:1052C00091FBE6E7534B1A68520203D41A6842F482
:1052D00080021A60504B4A1E9A4257D80133B3FBE2
:1052E000F1F1B1F5803FF0B438D34C4B99424ED92F
:1052F0004B4B994251D94B4B994253D94A4B994206
:1053000055D94A4B994258D9494B99425AD9494B98
:1053100099425DD9484B99425FD9484B994262D92D
:10532000474B994264D9474B99426CD9464B9942B5
:1053300063D9464B464A474F994245F6AF7344F608
:10534000AF7685BF17461E46042305230224424A32
:10535000D940A2FB0131C908E14002E03F4F40F6CD
:10536000A376036D3E4DD0F8A0003E4C5B0103F1E7
:10537000844301229A6101393B4B2A6089B2216042
:105380001E601F60F0BC40F2011202607047374F90
:1053900041F6A3760123D940E3E7354F42F6A376E1
:1053A0000223F8E7334F43F6A3760323F3E7002302
:1053B0001C46314F40F6A776C9E7304F44F6A37636
:1053C0000423E8E72E4F40F6AB7600230124BEE726
:1053D0002C4F45F6A3760523DDE72B4F40F6AF763D
:1053E00000230224B3E7294F46F6A3760623D2E72B
:1053F000274F47F6A3760723CDE7264F44F6AB7633
:1054000004230124A3E7244F44F6A77604230024B1
:105410009DE700BF3C800440FF6BDC02FDFF010004
:10542000FBFF0300F7FF0700F5FF0900EFFF0F0088
:10543000EBFF1300DFFF1F00D7FF2700BFFF3F0078
:105440007FFF7F005FFF9F00BFFE3F017FFD7F0268
:10545000AE5F0100AE4F0100CDCCCCCCA20F01005D
:105460000C6003400460034000600340A21F010081
:10547000A22F0100A23F0100A60F0100A24F0100D0
:10548000AA0F0100A25F0100AE0F0100A26F010090
:10549000A27F0100AA4F0100A64F0100094B1B6823
:1054A00013F4800308D0036D07495B0103F18443C3
:1054B00000220A609A617047026D520102F1844233
:1054C000936170473C8004400060034000220A2141
:1054D000818002608271C271704700BF10B50446BE
:1054E0000023C8B282B0E071A37101F0DDF908B108
:1054F0000323A371034B1B680193019B236002B03C
:1055000010BD00BFE49CFF1F81807047F0B50446CA
:1055100085B0C07901F0C8F9A279003018BF012028
:10552000C2F3400102F0F7038842A3710BD0124A84
:105530001268019283F00203019AA3712260C3F3FF
:10554000C00005B0F0BD0C4D276829680291029992
:10555000A688C91BB142F2D302F001029042EED0FC
:105560002A68039283F00903039AA371C3F3C0006E
:10557000226005B0F0BD00BFE49CFF1F807900F001
:105580000900A0F10900B0FA80F04009704700BF9F
:10559000807900F00900A0F10800B0FA80F040091D
:1055A000704700BF10B4047F4160022CC26002D07B
:1055B00010BC00F037BD836810BC1847F0B4464BF0
:1055C000464A186BDC6A01791170454922790A70E4
:1055D0009A6A00790870002A46D05968C9688A42D8
:1055E0003ED82168CC8B240402F1FF3065D4C0F38F
:1055F0000E00C883C88B80B2C882196B0968C88B3B
:10560000000452D4C2F30E00C883C88B002480B2B9
:1056100012F1FF32C88218BF01229C62D96A2E485B
:1056200009680D6800F12404A54236D00068C468FA
:1056300014F0804F0C680D6815BF2488247802355B
:10564000013544F000440D604463196B254B097922
:105650001970214912B1CA6A12791A70F0BC7047E8
:10566000521A9A620122D9E7586B196805681E4CD4
:105670000A63CC62CC682D681C4E24F0804403275A
:10568000B542CC6083F825701FD1037F4260022BA6
:10569000C2601ED0F0BC00F0C5BC016890F82400C8
:1056A000CC6840F000404863CFE7CC8BC2F30800E1
:1056B00004F47E442043C883A7E7CC8BC0F30800E2
:1056C00004F47E442043C88394E72B461146F0BC83
:1056D00018478368F0BC18478C8AFF1F1F80004062
:1056E0001C8000401B80004000000FFFA5550000FB
:1056F00090E80C00F0B41C6859682568164F174EE6
:1057000029432160164D17491760D6601561116055
:10571000417A154A5C180A3194F8244053F8215014
:1057200002EBC40149680D60017A5C1803EB81014A
:10573000247ECD6902EBC40149680D60817A581856
:1057400003EB810390F83000596B02EBC002F0BC10
:1057500053681960704700BF01401F0001100038F6
:105760000110007800001F80F0D700002DE9F04103
:10577000044640082A4DBDF818602A7000F13760D1
:105780000F4600F5D830B0FBF4F01D469DF81C80A4
:1057900001F0F6F9384601F069FA012D09D9214FD7
:1057A000284601213D7001F08DF83878002101F084
:1057B00075F81D4B9C4220D0B4F5E13F13DAB4F5E7
:1057C000964F1DDC19481A491A4A1B4B92FBF4F2FA
:1057D00093FBF4F402800C80184A194B16800022C7
:1057E0001A80BDE8F081B8F1000F09D00F49104BC5
:1057F0004B20AF2208801A80EEE7B8F1000F08D1E5
:105800000A490B4B40F2EE2040F2D66208801A8023
:10581000E2E70649064B01200A2208801A80DBE7EE
:105820009C9CFF1F109CFF1F40420F009A9CFF1F73
:10583000949CFF1FC0E1E400C00E1602969CFF1F5F
:105840009E9CFF1F70B5134E3378012B054603D97C
:105850001846012101F022F855B10F4C013D54FAD0
:1058600085F5013C14F8010F01F08EFAAC42F9D134
:1058700001F094FA094B1A8853010AB1013BFDD19A
:105880003078012804D90021BDE8704001F006B845
:1058900070BD00BF109CFF1F149CFF1F949CFF1F36
:1058A00030B4164A164D1278164B62F07F012A78F2
:1058B00098701C4659701A7018469D1C4FF6FF735D
:1058C0005340082203F00101013A5B0821B183F43F
:1058D000204383F001039BB212F0FF02F2D1A842F1
:1058E00002D010F8012FEBE75BBA9BB21A122371BA
:1058F000E270052030BCFFF7A5BF00BF999CFF1FD9
:105900009C9CFF1F149CFF1F2DE9F04F0026DFF821
:10591000D482B34F83B00546344601F04BFAB0B1A0
:10592000002E2AD101F056FAA4F18006631CB6FAC3
:1059300086F608F804007609DCB23A885301002A9A
:10594000EBD0013BFDD101F035FA0028E8D116BBC0
:10595000062C15D9A349A4480B78019313B3A34B84
:10596000067093F800E0019B734523D003780BBBCE
:105970009F4B188803B0BDE8F08F01F02BFADCE7ED
:10598000013C9B4B062C1888F4D8013080B218805B
:1059900003B0BDE8F08F964B1888421C1A8003B004
:1059A000BDE8F08F01230370904B93F800E0019B5A
:1059B0007345DBD10B198B4E13F802CC13F8013C65
:1059C000019AA4F1030951FA89F943EA0C2C3146F2
:1059D000B0464FF6FF735340082203F00107013A27
:1059E0005B0827B183F4204383F001039BB212F0DC
:1059F000FF02F2D1C14502D018F8012FEBE75BBAE4
:105A00009BB2634507D07A4B1888013080B218806A
:105A100003B0BDE8F08F91F802A091F8038091F8EF
:105A200005C003780A79734891F8019080F80090D6
:105A30004CEA022248EA0A200FFA80F812B21FFA52
:105A400088FA1FFA82FB0AEB0B0C1FFA8CFC6548E4
:105A500013B9B9F1030F4FD0B9F1060F00F09080E0
:105A6000B9F1100F0CD0624C2088013080B2208038
:105A7000002B7FF47FAF0120FFF712FF208879E72A
:105A80008A79093CA242BED15B4A1288924580F0D5
:105A9000DC80944500F2CC805FFA88F0844540F2C7
:105AA000C58007228C1811F802E064784D4F44EA53
:105AB0000E2400F1010E25F810405FFA8EF002323C
:105AC0008445D2B2EED83F784C4C4FF6FF727A4004
:105AD000082002F001050138520825B182F4204265
